{
  "contractName": "RadicalFreedom",
  "abi": [
    {
      "inputs": [],
      "payable": false,
      "stateMutability": "nonpayable",
      "type": "constructor"
    },
    {
      "constant": true,
      "inputs": [
        {
          "internalType": "uint256",
          "name": "",
          "type": "uint256"
        }
      ],
      "name": "articleHashes",
      "outputs": [
        {
          "internalType": "bytes32",
          "name": "",
          "type": "bytes32"
        }
      ],
      "payable": false,
      "stateMutability": "view",
      "type": "function"
    },
    {
      "constant": false,
      "inputs": [
        {
          "internalType": "string",
          "name": "pArticleAddress",
          "type": "string"
        },
        {
          "internalType": "bytes32",
          "name": "pArticleHash",
          "type": "bytes32"
        }
      ],
      "name": "pushArticle",
      "outputs": [],
      "payable": false,
      "stateMutability": "nonpayable",
      "type": "function"
    },
    {
      "constant": true,
      "inputs": [
        {
          "internalType": "bytes32",
          "name": "pArticleHash",
          "type": "bytes32"
        }
      ],
      "name": "getArticle",
      "outputs": [
        {
          "internalType": "string",
          "name": "",
          "type": "string"
        }
      ],
      "payable": false,
      "stateMutability": "view",
      "type": "function"
    },
    {
      "constant": true,
      "inputs": [
        {
          "internalType": "uint256",
          "name": "pHashNumber",
          "type": "uint256"
        }
      ],
      "name": "getHash",
      "outputs": [
        {
          "internalType": "bytes32",
          "name": "",
          "type": "bytes32"
        }
      ],
      "payable": false,
      "stateMutability": "view",
      "type": "function"
    },
    {
      "constant": true,
      "inputs": [],
      "name": "getNumberOfArticles",
      "outputs": [
        {
          "internalType": "uint256",
          "name": "",
          "type": "uint256"
        }
      ],
      "payable": false,
      "stateMutability": "view",
      "type": "function"
    }
  ],
  "bytecode": "0x608060405234801561001057600080fd5b506000808190555060006040519080825280602002602001820160405280156100485781602001602082028038833980820191505090505b506002908051906020019061005e929190610064565b506100d6565b8280548282559060005260206000209081019282156100a0579160200282015b8281111561009f578251825591602001919060010190610084565b5b5090506100ad91906100b1565b5090565b6100d391905b808211156100cf5760008160009055506001016100b7565b5090565b90565b6104ad806100e56000396000f3fe608060405234801561001057600080fd5b50600436106100575760003560e01c80631ba395dd1461005c578063310c4589146101035780636b2fafa9146101c857806389da85d31461020a578063bbf1218614610228575b600080fd5b6100886004803603602081101561007257600080fd5b810190808035906020019092919050505061026a565b6040518080602001828103825283818151815260200191508051906020019080838360005b838110156100c85780820151818401526020810190506100ad565b50505050905090810190601f1680156100f55780820380516001836020036101000a031916815260200191505b509250505060405180910390f35b6101c66004803603604081101561011957600080fd5b810190808035906020019064010000000081111561013657600080fd5b82018360208201111561014857600080fd5b8035906020019184600183028401116401000000008311171561016a57600080fd5b91908080601f016020809104026020016040519081016040528093929190818152602001838380828437600081840152601f19601f8201169050808301925050505050505091929192908035906020019092919050505061031f565b005b6101f4600480360360208110156101de57600080fd5b8101908080359060200190929190505050610388565b6040518082815260200191505060405180910390f35b6102126103a9565b6040518082815260200191505060405180910390f35b6102546004803603602081101561023e57600080fd5b81019080803590602001909291905050506103b2565b6040518082815260200191505060405180910390f35b6060600160008381526020019081526020016000208054600181600116156101000203166002900480601f0160208091040260200160405190810160405280929190818152602001828054600181600116156101000203166002900480156103135780601f106102e857610100808354040283529160200191610313565b820191906000526020600020905b8154815290600101906020018083116102f657829003601f168201915b50505050509050919050565b60028190806001815401808255809150509060018203906000526020600020016000909192909190915055506000808154809291906001019190505550816001600083815260200190815260200160002090805190602001906103839291906103d3565b505050565b60006002828154811061039757fe5b90600052602060002001549050919050565b60008054905090565b600281815481106103bf57fe5b906000526020600020016000915090505481565b828054600181600116156101000203166002900490600052602060002090601f016020900481019282601f1061041457805160ff1916838001178555610442565b82800160010185558215610442579182015b82811115610441578251825591602001919060010190610426565b5b50905061044f9190610453565b5090565b61047591905b80821115610471576000816000905550600101610459565b5090565b9056fea265627a7a72315820591792d7495ddbabe6a25a4a19e7d5ad1e4510e180401fd7cfbdfb5ebbf6f7cf64736f6c63430005100032",
  "source": "pragma solidity >=0.4.21 <0.7.0;\r\n\r\ncontract RadicalFreedom {\r\n    uint numberOfArticles;\r\n    mapping (bytes32 => string) articles;\r\n    bytes32[] public articleHashes;\r\n\r\n    constructor () public {\r\n        numberOfArticles = 0;\r\n        articleHashes = new bytes32[](0);\r\n    }\r\n\r\n    function pushArticle(string memory pArticleAddress, bytes32 pArticleHash) public {\r\n        articleHashes.push(pArticleHash);\r\n        numberOfArticles++;\r\n        articles[pArticleHash] = pArticleAddress;\r\n    }\r\n\r\n    function getArticle(bytes32 pArticleHash) public view returns (string memory) {\r\n        return articles[pArticleHash];\r\n    }\r\n\r\n    function getHash(uint pHashNumber) public view returns (bytes32) {\r\n        return articleHashes[pHashNumber];\r\n    }\r\n\r\n    function getNumberOfArticles() public view returns (uint) {\r\n        return numberOfArticles;\r\n    }\r\n}\r\n",
  "sourcePath": "C:/Users/Truffle/github/RadicalFreedom/contracts/RadicalFreedom.sol",
  "compiler": {
    "name": "solc",
    "version": "0.5.16+commit.9c3226ce.Emscripten.clang"
  },
  "schemaVersion": "3.0.22",
  "updatedAt": "2020-05-03T19:45:36.253Z",
  "networkType": "ethereum",
  "devdoc": {
    "methods": {}
  },
  "userdoc": {
    "methods": {}
  }
}